{
  "transactions": [
    {
      "hash": "0x2123cdf425b03f709e2bc1750965ec29b5d67b94aed41c35cf4201da6a12ff6e",
      "transactionType": "CALL",
      "contractName": "FunctionsConsumer",
      "contractAddress": "0x41fA323Ded0B4fd711aE05d162438560Ffc0f391",
      "function": "openGame(uint256[3],uint8,address):(address)",
      "arguments": [
        "[1500000000000000000 \u001b[2;49;39m[1.5e18]\u001b[0m, 2300000000000000000 \u001b[2;49;39m[2.3e18]\u001b[0m, 3300000000000000000 \u001b[2;49;39m[3.3e18]\u001b[0m]",
        "0",
        "0xC612e8f0cb5fa09B89E980238428a32Fa78B8561"
      ],
      "transaction": {
        "type": "0x02",
        "from": "0xd73f218d87afc082592c8d5854820ad55f858473",
        "to": "0x41fa323ded0b4fd711ae05d162438560ffc0f391",
        "gas": "0x647b5",
        "value": "0x0",
        "data": "0x4cb6e19000000000000000000000000000000000000000000000000014d1120d7b1600000000000000000000000000000000000000000000000000001feb3dd0676600000000000000000000000000000000000000000000000000002dcbf4840eca00000000000000000000000000000000000000000000000000000000000000000000000000000000000000000000c612e8f0cb5fa09b89e980238428a32fa78b8561",
        "nonce": "0xae",
        "accessList": []
      },
      "additionalContracts": [
        {
          "transactionType": "CREATE",
          "address": "0x214f6688dB9ce085d3304bC53A91214bB31848b7",
          "initCode": "608060405234801561001057600080fd5b5060405161022f38038061022f83398101604081905261002f91610066565b600061005c60017f360894a13ba1a3210667c828492db98dca3e2076cc3735a920a3ca505d382bbd610096565b91909155506100bb565b60006020828403121561007857600080fd5b81516001600160a01b038116811461008f57600080fd5b9392505050565b6000828210156100b657634e487b7160e01b600052601160045260246000fd5b500390565b610165806100ca6000396000f3fe6080604052600436106100225760003560e01c8063aaf10f421461003957610031565b366100315761002f610077565b005b61002f610077565b34801561004557600080fd5b5061004e610089565b60405173ffffffffffffffffffffffffffffffffffffffff909116815260200160405180910390f35b610087610082610098565b6100cd565b565b6000610093610098565b905090565b6000806100c660017f360894a13ba1a3210667c828492db98dca3e2076cc3735a920a3ca505d382bbd6100f1565b5492915050565b3660008037600080366000845af43d6000803e8080156100ec573d6000f35b3d6000fd5b60008282101561012a577f4e487b7100000000000000000000000000000000000000000000000000000000600052601160045260246000fd5b50039056fea264697066735822122034afa550bdd3dc120c5b745a5c99e88c89d8e8014285e0309df860d595dddff264736f6c634300080700330000000000000000000000004ef747f711cfe29c7de969c7c7c430d9e82844c3"
        }
      ],
      "isFixedGasLimit": false
    }
  ],
  "receipts": [],
  "libraries": [],
  "pending": [
    "0x2123cdf425b03f709e2bc1750965ec29b5d67b94aed41c35cf4201da6a12ff6e"
  ],
  "returns": {},
  "timestamp": 1686303183,
  "chain": 80001,
  "multi": false,
  "commit": "04fb013"
}