{
  "transactions": [
    {
      "hash": "0x4d1703d9d7e7eb6c84e9d56eecb6863a5a1dd30e32d8be3e447767fd9e446f1e",
      "transactionType": "CREATE",
      "contractName": "GameSingleImplementation",
      "contractAddress": "0x92786549CAfD307C69FD97bc4f6fD9e5C1887c9b",
      "function": null,
      "arguments": null,
      "transaction": {
        "type": "0x02",
        "from": "0xd73f218d87afc082592c8d5854820ad55f858473",
        "gas": "0x1592d6",
        "value": "0x0",
        "data": "0x608060405234801561001057600080fd5b506112b6806100206000396000f3fe608060405234801561001057600080fd5b506004361061018e5760003560e01c8063665da338116100de578063863375ac1161009757806391029f081161007157806391029f0814610373578063b6b55f2514610393578063bddd5d49146103a6578063d48e04bf146103b957600080fd5b8063863375ac1461034557806386fe53eb146103585780638da5cb5b1461036057600080fd5b8063665da338146102d15780636727e1eb146102e457806375172a8b1461030c5780637b35296214610315578063830de4b11461032957806385597a6e1461033257600080fd5b80633ccfd60b1161014b5780634e71d92d116101255780634e71d92d1461027457806354d960d41461027c5780635fbe4d1d1461028557806365372147146102b057600080fd5b80633ccfd60b1461024257806346156ea01461024c5780634c5be5741461025f57600080fd5b8063174d5c5d1461019357806323014dc0146101b9578063238ca85c146101e257806332147969146101f557806334e5d07a146101fe578063392e53cd1461021e575b600080fd5b6101a66101a1366004610fff565b6103cc565b6040519081526020015b60405180910390f35b6101a66101c7366004611038565b6001600160a01b031660009081526006602052604090205490565b6101a66101f0366004611053565b61040b565b6101a660075481565b6101a661020c366004610fff565b60026020526000908152604090205481565b600a5461023290600160a01b900460ff1681565b60405190151581526020016101b0565b61024a61045f565b005b6101a661025a366004611086565b6105a6565b6102676105bd565b6040516101b0919061109f565b6101a66105f7565b6101a6600b5481565b600a54610298906001600160a01b031681565b6040516001600160a01b0390911681526020016101b0565b600a546102c490600160b01b900460ff1681565b6040516101b091906110e6565b61024a6102df36600461110e565b610827565b6101a66102f2366004611138565b600060208181529281526040808220909352908152205481565b6101a660095481565b600a5461023290600160a81b900460ff1681565b6101a660085481565b61024a610340366004611173565b610a82565b61024a610353366004610fff565b610af7565b610232610ba0565b600c54610298906001600160a01b031681565b6101a6610381366004610fff565b60016020526000908152604090205481565b61024a6103a1366004611086565b610bc2565b61024a6103b436600461119e565b610d2b565b6101a66103c7366004610fff565b610dbd565b6000600160008360028111156103e4576103e46110d0565b60028111156103f5576103f56110d0565b8152602001908152602001600020549050919050565b6001600160a01b038116600090815260208190526040812081846002811115610436576104366110d0565b6002811115610447576104476110d0565b81526020019081526020016000205490505b92915050565b600a54600160a81b900460ff16610491576040516370f5153160e11b8152600060048201526024015b60405180910390fd5b610499610ba0565b156104ba57604051633150cad160e01b815260016004820152602401610488565b600a546040516370a0823160e01b81523060048201526000916001600160a01b0316906370a0823190602401602060405180830381865afa158015610503573d6000803e3d6000fd5b505050506040513d601f19601f8201168201806040525081019061052791906111ba565b600a54600c5460405163a9059cbb60e01b81526001600160a01b03918216600482015260248101849052929350169063a9059cbb906044016020604051808303816000875af115801561057e573d6000803e3d6000fd5b505050506040513d601f19601f820116820180604052508101906105a291906111d3565b5050565b600381600381106105b657600080fd5b0154905081565b6105c5610f7a565b60408051606081019182905290600390819081845b8154815260200190600101908083116105da575050505050905090565b6000610601610ba0565b61062157604051633150cad160e01b815260006004820152602401610488565b600060016000600a60169054906101000a900460ff166002811115610648576106486110d0565b6002811115610659576106596110d0565b815260200190815260200160002054600954610675919061120b565b6007543360009081526006602052604081205492935091610696908461121e565b6106a09190611235565b90506106ac8184611257565b336000908152602081905260408120600a5492955091600160b01b900460ff1660028111156106dd576106dd6110d0565b60028111156106ee576106ee6110d0565b815260200190815260200160002054836107089190611257565b336000908152602081905260408120600a5492955090918290600160b01b900460ff16600281111561073c5761073c6110d0565b600281111561074d5761074d6110d0565b8152602080820192909252604090810160009081209390935533835260069091528120819055839003610793576040516331e2093360e01b815260040160405180910390fd5b600a5460405163a9059cbb60e01b8152336004820152602481018590526001600160a01b039091169063a9059cbb906044016020604051808303816000875af11580156107e4573d6000803e3d6000fd5b505050506040513d601f19601f8201168201806040525081019061080891906111d3565b50826008600082825461081b9190611257565b92505081905550505090565b600a54600160a01b900460ff1661085457604051636f5fcee960e11b815260006004820152602401610488565b600a54600160a81b900460ff1615610882576040516370f5153160e11b815260016004820152602401610488565b600a546040516323b872dd60e01b8152336004820152306024820152604481018390526001600160a01b03909116906323b872dd906064016020604051808303816000875af11580156108d9573d6000803e3d6000fd5b505050506040513d601f19601f820116820180604052508101906108fd91906111d3565b50600061090983610dbd565b90508181101561092f57604051638e402b2160e01b815260048101829052602401610488565b6000670de0b6b3a7640000600385600281111561094e5761094e6110d0565b6003811061095e5761095e61126a565b015461096a908561121e565b6109749190611235565b33600090815260208190526040812091925082919086600281111561099b5761099b6110d0565b60028111156109ac576109ac6110d0565b815260200190815260200160002060008282546109c99190611257565b90915550819050600160008660028111156109e6576109e66110d0565b60028111156109f7576109f76110d0565b81526020019081526020016000206000828254610a149190611257565b925050819055508260096000828254610a2d9190611257565b90915550839050600260008682811115610a4957610a496110d0565b6002811115610a5a57610a5a6110d0565b81526020019081526020016000206000828254610a779190611257565b909155505050505050565b600a54600160a01b900460ff1615610ab057604051636f5fcee960e11b815260016004820152602401610488565b610abc60038381610f98565b50600a8054600c80546001600160a01b031916331790556001600160a81b0319166001600160a01b0390921691909117600160a01b17905550565b600c546001600160a01b03163314610b2257604051635fc483c560e01b815260040160405180910390fd5b600a54600160a81b900460ff1615610b50576040516370f5153160e11b815260016004820152602401610488565b600a805482919060ff60b01b1916600160b01b836002811115610b7557610b756110d0565b0217905550600a805460ff60a81b1916600160a81b179055610b9a6203f48042611257565b600b5550565b600a54600090600160a81b900460ff168015610bbd5750600b5442105b905090565b600a54600160a81b900460ff1615610bf0576040516370f5153160e11b815260016004820152602401610488565b600a546040516323b872dd60e01b8152336004820152306024820152604481018390526001600160a01b03909116906323b872dd906064016020604051808303816000875af1158015610c47573d6000803e3d6000fd5b505050506040513d601f19601f82011682018060405250810190610c6b91906111d3565b50612710610c7a60328361121e565b610c849190611235565b610c8e908261120b565b90506000600954600003610cb657610caf670de0b6b3a7640000600161121e565b9050610cd3565b600954600754610cc6908461121e565b610cd09190611235565b90505b8160096000828254610ce59190611257565b90915550503360009081526006602052604081208054839290610d09908490611257565b925050819055508060076000828254610d229190611257565b90915550505050565b600c546001600160a01b03163314610d5657604051635fc483c560e01b815260040160405180910390fd5b600a54600160a01b900460ff16610d8357604051636f5fcee960e11b815260006004820152602401610488565b600a54600160a81b900460ff1615610db1576040516370f5153160e11b815260016004820152602401610488565b6105a260038281610f98565b60008060016000846002811115610dd657610dd66110d0565b6002811115610de757610de76110d0565b815260200190815260200160002054600954610e03919061120b565b9050612710610e146103e88361121e565b610e1e9190611235565b610e28908261120b565b90506000610e34610e98565b90506002610e428284611257565b610e4c9190611235565b91506003846002811115610e6257610e626110d0565b60038110610e7257610e7261126a565b0154610e86670de0b6b3a76400008461121e565b610e909190611235565b949350505050565b60026020527f679795a0195a1b76cdebb7c51d74e058aee92919b8c3389af86ef24535e8a28c547fe90b7bceb6e7df5418fb78d8ee546e97c83a08bbccc01a0644d599ccd2a7c2e05460008080527fac33ff75c19e70fe83507db0d683fd3465c996598dc972688b7ace676c89077b54909283929091610f189190611257565b610f229190611257565b90506000600954670de0b6b3a764000083610f3d919061121e565b610f479190611235565b9050612710610f60670de0b6b3a76400006103e861121e565b610f6a9190611235565b811115610f75578192505b505090565b60405180606001604052806003906020820280368337509192915050565b8260038101928215610fc6579160200282015b82811115610fc6578235825591602001919060010190610fab565b50610fd2929150610fd6565b5090565b5b80821115610fd25760008155600101610fd7565b803560038110610ffa57600080fd5b919050565b60006020828403121561101157600080fd5b61101a82610feb565b9392505050565b80356001600160a01b0381168114610ffa57600080fd5b60006020828403121561104a57600080fd5b61101a82611021565b6000806040838503121561106657600080fd5b61106f83610feb565b915061107d60208401611021565b90509250929050565b60006020828403121561109857600080fd5b5035919050565b60608101818360005b60038110156110c75781518352602092830192909101906001016110a8565b50505092915050565b634e487b7160e01b600052602160045260246000fd5b602081016003831061110857634e487b7160e01b600052602160045260246000fd5b91905290565b6000806040838503121561112157600080fd5b61112a83610feb565b946020939093013593505050565b6000806040838503121561114b57600080fd5b61115483611021565b915061107d60208401610feb565b806060810183101561045957600080fd5b6000806080838503121561118657600080fd5b6111908484611162565b915061107d60608401611021565b6000606082840312156111b057600080fd5b61101a8383611162565b6000602082840312156111cc57600080fd5b5051919050565b6000602082840312156111e557600080fd5b8151801515811461101a57600080fd5b634e487b7160e01b600052601160045260246000fd5b81810381811115610459576104596111f5565b8082028115828204841417610459576104596111f5565b60008261125257634e487b7160e01b600052601260045260246000fd5b500490565b80820180821115610459576104596111f5565b634e487b7160e01b600052603260045260246000fdfea26469706673582212200f060e0fb5aace4243f5ccc42cd2b3028d97a498123f3fa9ab620322dbf113ca64736f6c63430008130033",
        "nonce": "0xb4",
        "accessList": []
      },
      "additionalContracts": [],
      "isFixedGasLimit": false
    },
    {
      "hash": "0xd1da1bf369027353c3fb35a3a125e82a0efa435260fcf1263be70780baf1106f",
      "transactionType": "CALL",
      "contractName": "FunctionsConsumer",
      "contractAddress": "0xCfa537e30F0af3495330cf7C200F1F7B153Be88a",
      "function": "setGameImplementation(uint8,address)",
      "arguments": [
        "0",
        "0x92786549CAfD307C69FD97bc4f6fD9e5C1887c9b"
      ],
      "transaction": {
        "type": "0x02",
        "from": "0xd73f218d87afc082592c8d5854820ad55f858473",
        "to": "0xcfa537e30f0af3495330cf7c200f1f7b153be88a",
        "gas": "0xfade",
        "value": "0x0",
        "data": "0x443449d2000000000000000000000000000000000000000000000000000000000000000000000000000000000000000092786549cafd307c69fd97bc4f6fd9e5c1887c9b",
        "nonce": "0xb5",
        "accessList": []
      },
      "additionalContracts": [],
      "isFixedGasLimit": false
    },
    {
      "hash": "0xe061ab3183311eec688ac265b2b8acdb4a5a56b9faf30ccf0fa9a025f92b3fb7",
      "transactionType": "CALL",
      "contractName": "FunctionsConsumer",
      "contractAddress": "0xCfa537e30F0af3495330cf7C200F1F7B153Be88a",
      "function": "openGame(uint256[3],uint8,address):(address)",
      "arguments": [
        "[1500000000000000000 \u001b[2;49;39m[1.5e18]\u001b[0m, 2300000000000000000 \u001b[2;49;39m[2.3e18]\u001b[0m, 3300000000000000000 \u001b[2;49;39m[3.3e18]\u001b[0m]",
        "0",
        "0xC612e8f0cb5fa09B89E980238428a32Fa78B8561"
      ],
      "transaction": {
        "type": "0x02",
        "from": "0xd73f218d87afc082592c8d5854820ad55f858473",
        "to": "0xcfa537e30f0af3495330cf7c200f1f7b153be88a",
        "gas": "0x71914",
        "value": "0x0",
        "data": "0x4cb6e19000000000000000000000000000000000000000000000000014d1120d7b1600000000000000000000000000000000000000000000000000001feb3dd0676600000000000000000000000000000000000000000000000000002dcbf4840eca00000000000000000000000000000000000000000000000000000000000000000000000000000000000000000000c612e8f0cb5fa09b89e980238428a32fa78b8561",
        "nonce": "0xb6",
        "accessList": []
      },
      "additionalContracts": [
        {
          "transactionType": "CREATE",
          "address": "0xae4CC4a2B76d350c36749Ff171158ba39B39EF7C",
          "initCode": "608060405234801561001057600080fd5b5060405161022f38038061022f83398101604081905261002f91610066565b600061005c60017f360894a13ba1a3210667c828492db98dca3e2076cc3735a920a3ca505d382bbd610096565b91909155506100bb565b60006020828403121561007857600080fd5b81516001600160a01b038116811461008f57600080fd5b9392505050565b6000828210156100b657634e487b7160e01b600052601160045260246000fd5b500390565b610165806100ca6000396000f3fe6080604052600436106100225760003560e01c8063aaf10f421461003957610031565b366100315761002f610077565b005b61002f610077565b34801561004557600080fd5b5061004e610089565b60405173ffffffffffffffffffffffffffffffffffffffff909116815260200160405180910390f35b610087610082610098565b6100cd565b565b6000610093610098565b905090565b6000806100c660017f360894a13ba1a3210667c828492db98dca3e2076cc3735a920a3ca505d382bbd6100f1565b5492915050565b3660008037600080366000845af43d6000803e8080156100ec573d6000f35b3d6000fd5b60008282101561012a577f4e487b7100000000000000000000000000000000000000000000000000000000600052601160045260246000fd5b50039056fea264697066735822122034afa550bdd3dc120c5b745a5c99e88c89d8e8014285e0309df860d595dddff264736f6c6343000807003300000000000000000000000092786549cafd307c69fd97bc4f6fd9e5c1887c9b"
        }
      ],
      "isFixedGasLimit": false
    },
    {
      "hash": "0x61db80fe78ba17014fd2a807ed9fef4ce2ceff8c2b64a13454d23882eeaece22",
      "transactionType": "CALL",
      "contractName": "FunctionsConsumer",
      "contractAddress": "0xCfa537e30F0af3495330cf7C200F1F7B153Be88a",
      "function": "openGame(uint256[3],uint8,address):(address)",
      "arguments": [
        "[1500000000000000000 \u001b[2;49;39m[1.5e18]\u001b[0m, 2300000000000000000 \u001b[2;49;39m[2.3e18]\u001b[0m, 3300000000000000000 \u001b[2;49;39m[3.3e18]\u001b[0m]",
        "0",
        "0xC612e8f0cb5fa09B89E980238428a32Fa78B8561"
      ],
      "transaction": {
        "type": "0x02",
        "from": "0xd73f218d87afc082592c8d5854820ad55f858473",
        "to": "0xcfa537e30f0af3495330cf7c200f1f7b153be88a",
        "gas": "0x71914",
        "value": "0x0",
        "data": "0x4cb6e19000000000000000000000000000000000000000000000000014d1120d7b1600000000000000000000000000000000000000000000000000001feb3dd0676600000000000000000000000000000000000000000000000000002dcbf4840eca00000000000000000000000000000000000000000000000000000000000000000000000000000000000000000000c612e8f0cb5fa09b89e980238428a32fa78b8561",
        "nonce": "0xb7",
        "accessList": []
      },
      "additionalContracts": [
        {
          "transactionType": "CREATE",
          "address": "0x8B59Fe566a4501A13eF6CaD7ABEC50959bc901Db",
          "initCode": "608060405234801561001057600080fd5b5060405161022f38038061022f83398101604081905261002f91610066565b600061005c60017f360894a13ba1a3210667c828492db98dca3e2076cc3735a920a3ca505d382bbd610096565b91909155506100bb565b60006020828403121561007857600080fd5b81516001600160a01b038116811461008f57600080fd5b9392505050565b6000828210156100b657634e487b7160e01b600052601160045260246000fd5b500390565b610165806100ca6000396000f3fe6080604052600436106100225760003560e01c8063aaf10f421461003957610031565b366100315761002f610077565b005b61002f610077565b34801561004557600080fd5b5061004e610089565b60405173ffffffffffffffffffffffffffffffffffffffff909116815260200160405180910390f35b610087610082610098565b6100cd565b565b6000610093610098565b905090565b6000806100c660017f360894a13ba1a3210667c828492db98dca3e2076cc3735a920a3ca505d382bbd6100f1565b5492915050565b3660008037600080366000845af43d6000803e8080156100ec573d6000f35b3d6000fd5b60008282101561012a577f4e487b7100000000000000000000000000000000000000000000000000000000600052601160045260246000fd5b50039056fea264697066735822122034afa550bdd3dc120c5b745a5c99e88c89d8e8014285e0309df860d595dddff264736f6c6343000807003300000000000000000000000092786549cafd307c69fd97bc4f6fd9e5c1887c9b"
        }
      ],
      "isFixedGasLimit": false
    }
  ],
  "receipts": [
    {
      "transactionHash": "0x4d1703d9d7e7eb6c84e9d56eecb6863a5a1dd30e32d8be3e447767fd9e446f1e",
      "transactionIndex": "0x14",
      "blockHash": "0x15d1ff6990a275e6f1739c0d42a7d9457f56d31a8f4ee790fa1ae30a2722cdcc",
      "blockNumber": "0x22ef30c",
      "from": "0xd73f218d87AFC082592C8D5854820ad55f858473",
      "to": null,
      "cumulativeGasUsed": "0x1de8bc",
      "gasUsed": "0x109856",
      "contractAddress": "0x92786549CAfD307C69FD97bc4f6fD9e5C1887c9b",
      "logs": [
        {
          "address": "0x0000000000000000000000000000000000001010",
          "topics": [
            "0x4dfe1bbbcf077ddc3e01291eea2d5c70c2b422b415d95645b9adcfd678cb1d63",
            "0x0000000000000000000000000000000000000000000000000000000000001010",
            "0x000000000000000000000000d73f218d87afc082592c8d5854820ad55f858473",
            "0x0000000000000000000000003a22c8bc68e98b0faf40f349dd2b2890fae01484"
          ],
          "data": "0x0000000000000000000000000000000000000000000000000007ba491ac59a4a000000000000000000000000000000000000000000000000148912914e3441e5000000000000000000000000000000000000000000000aa5122f75cb286d20d900000000000000000000000000000000000000000000000014815848336ea79b000000000000000000000000000000000000000000000aa5123730144332bb23",
          "blockHash": "0x15d1ff6990a275e6f1739c0d42a7d9457f56d31a8f4ee790fa1ae30a2722cdcc",
          "blockNumber": "0x22ef30c",
          "transactionHash": "0x4d1703d9d7e7eb6c84e9d56eecb6863a5a1dd30e32d8be3e447767fd9e446f1e",
          "transactionIndex": "0x14",
          "logIndex": "0x3a",
          "removed": false
        }
      ],
      "status": "0x1",
      "logsBloom": "0x00000000000000000000000000000000000000000000000000000000000000000000000000000000000000000000000000008000000000000000000000008000000000000000000000000000000000800000200000000000000100000000000000000000000000000000000000000000000000000000000080000000000000000000000000000000000000000000000000000000000000000000000000000000200000000000000000080000000400000000000000000000000000000000004000000000000000000001000000000100000000000000000000100000000000000000000000000000000000000000001000000000000000000000000000100000",
      "type": "0x2",
      "effectiveGasPrice": "0x77359400"
    },
    {
      "transactionHash": "0xd1da1bf369027353c3fb35a3a125e82a0efa435260fcf1263be70780baf1106f",
      "transactionIndex": "0x15",
      "blockHash": "0x15d1ff6990a275e6f1739c0d42a7d9457f56d31a8f4ee790fa1ae30a2722cdcc",
      "blockNumber": "0x22ef30c",
      "from": "0xd73f218d87AFC082592C8D5854820ad55f858473",
      "to": "0xCfa537e30F0af3495330cf7C200F1F7B153Be88a",
      "cumulativeGasUsed": "0x1e9e5c",
      "gasUsed": "0xb5a0",
      "contractAddress": null,
      "logs": [
        {
          "address": "0x0000000000000000000000000000000000001010",
          "topics": [
            "0x4dfe1bbbcf077ddc3e01291eea2d5c70c2b422b415d95645b9adcfd678cb1d63",
            "0x0000000000000000000000000000000000000000000000000000000000001010",
            "0x000000000000000000000000d73f218d87afc082592c8d5854820ad55f858473",
            "0x0000000000000000000000003a22c8bc68e98b0faf40f349dd2b2890fae01484"
          ],
          "data": "0x000000000000000000000000000000000000000000000000000054936314706000000000000000000000000000000000000000000000000014815848325489e5000000000000000000000000000000000000000000000aa5123730144332bb23000000000000000000000000000000000000000000000000148103b4cf401985000000000000000000000000000000000000000000000aa5123784a7a6472b83",
          "blockHash": "0x15d1ff6990a275e6f1739c0d42a7d9457f56d31a8f4ee790fa1ae30a2722cdcc",
          "blockNumber": "0x22ef30c",
          "transactionHash": "0xd1da1bf369027353c3fb35a3a125e82a0efa435260fcf1263be70780baf1106f",
          "transactionIndex": "0x15",
          "logIndex": "0x3b",
          "removed": false
        }
      ],
      "status": "0x1",
      "logsBloom": "0x00000000000000000000000000000000000000000000000000000000000000000000000000000000000000000000000000008000000000000000000000008000000000000000000000000000000000800000200000000000000100000000000000000000000000000000000000000000000000000000000080000000000000000000000000000000000000000000000000000000000000000000000000000000200000000000000000080000000400000000000000000000000000000000004000000000000000000001000000000100000000000000000000100000000000000000000000000000000000000000001000000000000000000000000000100000",
      "type": "0x2",
      "effectiveGasPrice": "0x77359400"
    },
    {
      "transactionHash": "0xe061ab3183311eec688ac265b2b8acdb4a5a56b9faf30ccf0fa9a025f92b3fb7",
      "transactionIndex": "0x16",
      "blockHash": "0x15d1ff6990a275e6f1739c0d42a7d9457f56d31a8f4ee790fa1ae30a2722cdcc",
      "blockNumber": "0x22ef30c",
      "from": "0xd73f218d87AFC082592C8D5854820ad55f858473",
      "to": "0xCfa537e30F0af3495330cf7C200F1F7B153Be88a",
      "cumulativeGasUsed": "0x2378cf",
      "gasUsed": "0x4da73",
      "contractAddress": null,
      "logs": [
        {
          "address": "0x0000000000000000000000000000000000001010",
          "topics": [
            "0x4dfe1bbbcf077ddc3e01291eea2d5c70c2b422b415d95645b9adcfd678cb1d63",
            "0x0000000000000000000000000000000000000000000000000000000000001010",
            "0x000000000000000000000000d73f218d87afc082592c8d5854820ad55f858473",
            "0x0000000000000000000000003a22c8bc68e98b0faf40f349dd2b2890fae01484"
          ],
          "data": "0x0000000000000000000000000000000000000000000000000002428f7cc6fa5d000000000000000000000000000000000000000000000000148103b4cf3409e5000000000000000000000000000000000000000000000aa5123784a7a6472b83000000000000000000000000000000000000000000000000147ec125526d0f88000000000000000000000000000000000000000000000aa51239c737230e25e0",
          "blockHash": "0x15d1ff6990a275e6f1739c0d42a7d9457f56d31a8f4ee790fa1ae30a2722cdcc",
          "blockNumber": "0x22ef30c",
          "transactionHash": "0xe061ab3183311eec688ac265b2b8acdb4a5a56b9faf30ccf0fa9a025f92b3fb7",
          "transactionIndex": "0x16",
          "logIndex": "0x3c",
          "removed": false
        }
      ],
      "status": "0x1",
      "logsBloom": "0x00000000000000000000000000000000000000000000000000000000000000000000000000000000000000000000000000008000000000000000000000008000000000000000000000000000000000800000200000000000000100000000000000000000000000000000000000000000000000000000000080000000000000000000000000000000000000000000000000000000000000000000000000000000200000000000000000080000000400000000000000000000000000000000004000000000000000000001000000000100000000000000000000100000000000000000000000000000000000000000001000000000000000000000000000100000",
      "type": "0x2",
      "effectiveGasPrice": "0x77359400"
    },
    {
      "transactionHash": "0x61db80fe78ba17014fd2a807ed9fef4ce2ceff8c2b64a13454d23882eeaece22",
      "transactionIndex": "0x17",
      "blockHash": "0x15d1ff6990a275e6f1739c0d42a7d9457f56d31a8f4ee790fa1ae30a2722cdcc",
      "blockNumber": "0x22ef30c",
      "from": "0xd73f218d87AFC082592C8D5854820ad55f858473",
      "to": "0xCfa537e30F0af3495330cf7C200F1F7B153Be88a",
      "cumulativeGasUsed": "0x285342",
      "gasUsed": "0x4da73",
      "contractAddress": null,
      "logs": [
        {
          "address": "0x0000000000000000000000000000000000001010",
          "topics": [
            "0x4dfe1bbbcf077ddc3e01291eea2d5c70c2b422b415d95645b9adcfd678cb1d63",
            "0x0000000000000000000000000000000000000000000000000000000000001010",
            "0x000000000000000000000000d73f218d87afc082592c8d5854820ad55f858473",
            "0x0000000000000000000000003a22c8bc68e98b0faf40f349dd2b2890fae01484"
          ],
          "data": "0x0000000000000000000000000000000000000000000000000002428f7cc6fa5d000000000000000000000000000000000000000000000000147ec125521a8de5000000000000000000000000000000000000000000000aa51239c737230e25e0000000000000000000000000000000000000000000000000147c7e95d5539388000000000000000000000000000000000000000000000aa5123c09c69fd5203d",
          "blockHash": "0x15d1ff6990a275e6f1739c0d42a7d9457f56d31a8f4ee790fa1ae30a2722cdcc",
          "blockNumber": "0x22ef30c",
          "transactionHash": "0x61db80fe78ba17014fd2a807ed9fef4ce2ceff8c2b64a13454d23882eeaece22",
          "transactionIndex": "0x17",
          "logIndex": "0x3d",
          "removed": false
        }
      ],
      "status": "0x1",
      "logsBloom": "0x00000000000000000000000000000000000000000000000000000000000000000000000000000000000000000000000000008000000000000000000000008000000000000000000000000000000000800000200000000000000100000000000000000000000000000000000000000000000000000000000080000000000000000000000000000000000000000000000000000000000000000000000000000000200000000000000000080000000400000000000000000000000000000000004000000000000000000001000000000100000000000000000000100000000000000000000000000000000000000000001000000000000000000000000000100000",
      "type": "0x2",
      "effectiveGasPrice": "0x77359400"
    }
  ],
  "libraries": [],
  "pending": [],
  "returns": {},
  "timestamp": 1686304225,
  "chain": 80001,
  "multi": false,
  "commit": "04fb013"
}